{
  "contractName": "ZombieHelper",
  "abi": [
    {
      "anonymous": false,
      "inputs": [
        {
          "indexed": false,
          "internalType": "uint256",
          "name": "zombieId",
          "type": "uint256"
        },
        {
          "indexed": false,
          "internalType": "string",
          "name": "name",
          "type": "string"
        },
        {
          "indexed": false,
          "internalType": "uint256",
          "name": "dna",
          "type": "uint256"
        }
      ],
      "name": "NewZombie",
      "type": "event"
    },
    {
      "anonymous": false,
      "inputs": [
        {
          "indexed": true,
          "internalType": "address",
          "name": "previousOwner",
          "type": "address"
        },
        {
          "indexed": true,
          "internalType": "address",
          "name": "newOwner",
          "type": "address"
        }
      ],
      "name": "OwnershipTransferred",
      "type": "event"
    },
    {
      "inputs": [
        {
          "internalType": "string",
          "name": "_name",
          "type": "string"
        }
      ],
      "name": "createRandomZombie",
      "outputs": [],
      "stateMutability": "nonpayable",
      "type": "function"
    },
    {
      "inputs": [
        {
          "internalType": "uint256",
          "name": "_zombieId",
          "type": "uint256"
        },
        {
          "internalType": "uint256",
          "name": "_kittyId",
          "type": "uint256"
        }
      ],
      "name": "feedOnKitty",
      "outputs": [],
      "stateMutability": "nonpayable",
      "type": "function"
    },
    {
      "inputs": [],
      "name": "isOwner",
      "outputs": [
        {
          "internalType": "bool",
          "name": "",
          "type": "bool"
        }
      ],
      "stateMutability": "view",
      "type": "function"
    },
    {
      "inputs": [],
      "name": "owner",
      "outputs": [
        {
          "internalType": "address",
          "name": "",
          "type": "address"
        }
      ],
      "stateMutability": "view",
      "type": "function"
    },
    {
      "inputs": [],
      "name": "renounceOwnership",
      "outputs": [],
      "stateMutability": "nonpayable",
      "type": "function"
    },
    {
      "inputs": [
        {
          "internalType": "address",
          "name": "_address",
          "type": "address"
        }
      ],
      "name": "setKittyContractAddress",
      "outputs": [],
      "stateMutability": "nonpayable",
      "type": "function"
    },
    {
      "inputs": [
        {
          "internalType": "address",
          "name": "newOwner",
          "type": "address"
        }
      ],
      "name": "transferOwnership",
      "outputs": [],
      "stateMutability": "nonpayable",
      "type": "function"
    },
    {
      "inputs": [
        {
          "internalType": "uint256",
          "name": "",
          "type": "uint256"
        }
      ],
      "name": "zombieToOwner",
      "outputs": [
        {
          "internalType": "address",
          "name": "",
          "type": "address"
        }
      ],
      "stateMutability": "view",
      "type": "function"
    },
    {
      "inputs": [
        {
          "internalType": "uint256",
          "name": "",
          "type": "uint256"
        }
      ],
      "name": "zombies",
      "outputs": [
        {
          "internalType": "string",
          "name": "name",
          "type": "string"
        },
        {
          "internalType": "uint256",
          "name": "dna",
          "type": "uint256"
        },
        {
          "internalType": "uint32",
          "name": "level",
          "type": "uint32"
        },
        {
          "internalType": "uint32",
          "name": "readyTime",
          "type": "uint32"
        },
        {
          "internalType": "uint16",
          "name": "winCount",
          "type": "uint16"
        },
        {
          "internalType": "uint16",
          "name": "lossCount",
          "type": "uint16"
        }
      ],
      "stateMutability": "view",
      "type": "function"
    },
    {
      "inputs": [],
      "name": "withdraw",
      "outputs": [],
      "stateMutability": "nonpayable",
      "type": "function"
    },
    {
      "inputs": [
        {
          "internalType": "uint256",
          "name": "_fee",
          "type": "uint256"
        }
      ],
      "name": "setLevelUpFee",
      "outputs": [],
      "stateMutability": "nonpayable",
      "type": "function"
    },
    {
      "inputs": [
        {
          "internalType": "uint256",
          "name": "_zombieId",
          "type": "uint256"
        }
      ],
      "name": "levelUp",
      "outputs": [],
      "stateMutability": "payable",
      "type": "function"
    },
    {
      "inputs": [
        {
          "internalType": "uint256",
          "name": "_zombieId",
          "type": "uint256"
        },
        {
          "internalType": "string",
          "name": "_newName",
          "type": "string"
        }
      ],
      "name": "changeName",
      "outputs": [],
      "stateMutability": "nonpayable",
      "type": "function"
    },
    {
      "inputs": [
        {
          "internalType": "uint256",
          "name": "_zombieId",
          "type": "uint256"
        },
        {
          "internalType": "uint256",
          "name": "_newDna",
          "type": "uint256"
        }
      ],
      "name": "changeDna",
      "outputs": [],
      "stateMutability": "nonpayable",
      "type": "function"
    },
    {
      "inputs": [
        {
          "internalType": "address",
          "name": "_owner",
          "type": "address"
        }
      ],
      "name": "getZombiesByOwner",
      "outputs": [
        {
          "internalType": "uint256[]",
          "name": "",
          "type": "uint256[]"
        }
      ],
      "stateMutability": "view",
      "type": "function"
    },
    {
      "inputs": [],
      "name": "getAllZombies",
      "outputs": [
        {
          "internalType": "uint256[]",
          "name": "",
          "type": "uint256[]"
        }
      ],
      "stateMutability": "view",
      "type": "function"
    }
  ],
  "bytecode": "0x60806040526010600155600154600a6200001a91906200028b565b6002556201518060035566038d7ea4c680006008553480156200003c57600080fd5b50336000806101000a81548173ffffffffffffffffffffffffffffffffffffffff021916908373ffffffffffffffffffffffffffffffffffffffff16021790555060008054906101000a900473ffffffffffffffffffffffffffffffffffffffff1673ffffffffffffffffffffffffffffffffffffffff16600073ffffffffffffffffffffffffffffffffffffffff167f8be0079c531659141344cd1fd0a4f28419497f9722a3daafe3b4186f6b6457e060405160405180910390a3620002dc565b7f4e487b7100000000000000000000000000000000000000000000000000000000600052601160045260246000fd5b60008160011c9050919050565b6000808291508390505b60018511156200018c57808604811115620001645762000163620000fe565b5b6001851615620001745780820291505b808102905062000184856200012d565b945062000144565b94509492505050565b600082620001a757600190506200027a565b81620001b757600090506200027a565b8160018114620001d05760028114620001db5762000211565b60019150506200027a565b60ff841115620001f057620001ef620000fe565b5b8360020a9150848211156200020a5762000209620000fe565b5b506200027a565b5060208310610133831016604e8410600b84101617156200024b5782820a905083811115620002455762000244620000fe565b5b6200027a565b6200025a84848460016200013a565b92509050818404811115620002745762000273620000fe565b5b81810290505b9392505050565b6000819050919050565b6000620002988262000281565b9150620002a58362000281565b9250620002d47fffffffffffffffffffffffffffffffffffffffffffffffffffffffffffffffff848462000195565b905092915050565b61246380620002ec6000396000f3fe6080604052600436106100f35760003560e01c8063715018a61161008a578063ab170a6d11610059578063ab170a6d146102f8578063c39cbef114610323578063ccf670f81461034c578063f2fde38b14610375576100f3565b8063715018a6146102625780637bff0a01146102795780638da5cb5b146102a25780638f32d59b146102cd576100f3565b80634412e104116100c65780634412e10414610196578063528b7b8f146101d35780635f4623f1146102105780635faf288014610239576100f3565b80630ce90ec2146100f857806317a7f4cc146101145780632052465e1461013d5780633ccfd60b1461017f575b600080fd5b610112600480360381019061010d91906115e1565b61039e565b005b34801561012057600080fd5b5061013b6004803603810190610136919061160e565b610441565b005b34801561014957600080fd5b50610164600480360381019061015f91906115e1565b61055f565b60405161017696959493929190611729565b60405180910390f35b34801561018b57600080fd5b5061019461066f565b005b3480156101a257600080fd5b506101bd60048036038101906101b891906117ef565b6106d6565b6040516101ca91906118da565b60405180910390f35b3480156101df57600080fd5b506101fa60048036038101906101f591906115e1565b610828565b604051610207919061190b565b60405180910390f35b34801561021c57600080fd5b50610237600480360381019061023291906117ef565b61085b565b005b34801561024557600080fd5b50610260600480360381019061025b919061160e565b6108b0565b005b34801561026e57600080fd5b50610277610998565b005b34801561028557600080fd5b506102a0600480360381019061029b9190611a5b565b610a67565b005b3480156102ae57600080fd5b506102b7610ace565b6040516102c4919061190b565b60405180910390f35b3480156102d957600080fd5b506102e2610af7565b6040516102ef9190611abf565b60405180910390f35b34801561030457600080fd5b5061030d610b4e565b60405161031a91906118da565b60405180910390f35b34801561032f57600080fd5b5061034a60048036038101906103459190611b3a565b610bfd565b005b34801561035857600080fd5b50610373600480360381019061036e91906115e1565b610cf1565b005b34801561038157600080fd5b5061039c600480360381019061039791906117ef565b610d0c565b005b60085434146103ac57600080fd5b6103fb6001600483815481106103c5576103c4611b9a565b5b906000526020600020906003020160020160009054906101000a900463ffffffff1663ffffffff16610d2990919063ffffffff16565b6004828154811061040f5761040e611b9a565b5b906000526020600020906003020160020160006101000a81548163ffffffff021916908363ffffffff16021790555050565b6000600760009054906101000a900473ffffffffffffffffffffffffffffffffffffffff1673ffffffffffffffffffffffffffffffffffffffff1663e98b7f4d836040518263ffffffff1660e01b815260040161049e9190611bc9565b61014060405180830381865afa1580156104bc573d6000803e3d6000fd5b505050506040513d601f19601f820116820180604052508101906104e09190611c25565b9091929394959697985090919293949596975090919293949596509091929394955090919293945090919293509091925090915090508091505061055a83826040518060400160405280600581526020017f6b69747479000000000000000000000000000000000000000000000000000000815250610d61565b505050565b6004818154811061056f57600080fd5b906000526020600020906003020160009150905080600001805461059290611d33565b80601f01602080910402602001604051908101604052809291908181526020018280546105be90611d33565b801561060b5780601f106105e05761010080835404028352916020019161060b565b820191906000526020600020905b8154815290600101906020018083116105ee57829003601f168201915b5050505050908060010154908060020160009054906101000a900463ffffffff16908060020160049054906101000a900463ffffffff16908060020160089054906101000a900461ffff169080600201600a9054906101000a900461ffff16905086565b610677610af7565b61068057600080fd5b600061068a610ace565b90508073ffffffffffffffffffffffffffffffffffffffff166108fc479081150290604051600060405180830381858888f193505050501580156106d2573d6000803e3d6000fd5b5050565b60606000600660008473ffffffffffffffffffffffffffffffffffffffff1673ffffffffffffffffffffffffffffffffffffffff1681526020019081526020016000205467ffffffffffffffff81111561073357610732611930565b5b6040519080825280602002602001820160405280156107615781602001602082028036833780820191505090505b5090506000805b60048054905081101561081d578473ffffffffffffffffffffffffffffffffffffffff166005600083815260200190815260200160002060009054906101000a900473ffffffffffffffffffffffffffffffffffffffff1673ffffffffffffffffffffffffffffffffffffffff160361080a57808383815181106107ef576107ee611b9a565b5b602002602001018181525050818061080690611d93565b9250505b808061081590611d93565b915050610768565b508192505050919050565b60056020528060005260406000206000915054906101000a900473ffffffffffffffffffffffffffffffffffffffff1681565b610863610af7565b61086c57600080fd5b80600760006101000a81548173ffffffffffffffffffffffffffffffffffffffff021916908373ffffffffffffffffffffffffffffffffffffffff16021790555050565b60148281600482815481106108c8576108c7611b9a565b5b906000526020600020906003020160020160009054906101000a900463ffffffff1663ffffffff1610156108fb57600080fd5b836005600082815260200190815260200160002060009054906101000a900473ffffffffffffffffffffffffffffffffffffffff1673ffffffffffffffffffffffffffffffffffffffff163373ffffffffffffffffffffffffffffffffffffffff161461096757600080fd5b836004868154811061097c5761097b611b9a565b5b9060005260206000209060030201600101819055505050505050565b6109a0610af7565b6109a957600080fd5b600073ffffffffffffffffffffffffffffffffffffffff1660008054906101000a900473ffffffffffffffffffffffffffffffffffffffff1673ffffffffffffffffffffffffffffffffffffffff167f8be0079c531659141344cd1fd0a4f28419497f9722a3daafe3b4186f6b6457e060405160405180910390a360008060006101000a81548173ffffffffffffffffffffffffffffffffffffffff021916908373ffffffffffffffffffffffffffffffffffffffff160217905550565b6000600660003373ffffffffffffffffffffffffffffffffffffffff1673ffffffffffffffffffffffffffffffffffffffff1681526020019081526020016000205414610ab357600080fd5b6000610abe82610f45565b9050610aca8282610f8a565b5050565b60008060009054906101000a900473ffffffffffffffffffffffffffffffffffffffff16905090565b60008060009054906101000a900473ffffffffffffffffffffffffffffffffffffffff1673ffffffffffffffffffffffffffffffffffffffff163373ffffffffffffffffffffffffffffffffffffffff1614905090565b6060600060048054905067ffffffffffffffff811115610b7157610b70611930565b5b604051908082528060200260200182016040528015610b9f5781602001602082028036833780820191505090505b5090506000805b600480549050811015610bf45780838381518110610bc757610bc6611b9a565b5b6020026020010181815250508180610bde90611d93565b9250508080610bec90611d93565b915050610ba6565b50819250505090565b6002838160048281548110610c1557610c14611b9a565b5b906000526020600020906003020160020160009054906101000a900463ffffffff1663ffffffff161015610c4857600080fd5b846005600082815260200190815260200160002060009054906101000a900473ffffffffffffffffffffffffffffffffffffffff1673ffffffffffffffffffffffffffffffffffffffff163373ffffffffffffffffffffffffffffffffffffffff1614610cb457600080fd5b848460048881548110610cca57610cc9611b9a565b5b90600052602060002090600302016000019182610ce8929190611f92565b50505050505050565b610cf9610af7565b610d0257600080fd5b8060088190555050565b610d14610af7565b610d1d57600080fd5b610d26816111fa565b50565b6000808284610d389190612062565b90508363ffffffff168163ffffffff161015610d5757610d5661209a565b5b8091505092915050565b826005600082815260200190815260200160002060009054906101000a900473ffffffffffffffffffffffffffffffffffffffff1673ffffffffffffffffffffffffffffffffffffffff163373ffffffffffffffffffffffffffffffffffffffff1614610dcd57600080fd5b600060048581548110610de357610de2611b9a565b5b90600052602060002090600302019050610dfc816112f0565b610e0557600080fd5b60025484610e1391906120f8565b935060006002858360010154610e299190612129565b610e33919061215d565b9050604051602001610e44906121e5565b6040516020818303038152906040528051906020012084604051602001610e6b919061222b565b6040516020818303038152906040528051906020012003610ead576063606482610e9591906120f8565b82610ea09190612242565b610eaa9190612129565b90505b60006001600660003373ffffffffffffffffffffffffffffffffffffffff1673ffffffffffffffffffffffffffffffffffffffff16815260200190815260200160002054610efb9190612129565b9050610f3383600001610f0d83611317565b604051602001610f1e9291906122f9565b60405160208183030381529060405283610f8a565b610f3c836113e5565b50505050505050565b60008082604051602001610f59919061222b565b6040516020818303038152906040528051906020012060001c905060025481610f8291906120f8565b915050919050565b60046040518060c00160405280848152602001838152602001600163ffffffff16815260200160035442610fbe9190612129565b63ffffffff168152602001600061ffff168152602001600061ffff168152509080600181540180825580915050600190039060005260206000209060030201600090919091909150600082015181600001908161101b919061231d565b506020820151816001015560408201518160020160006101000a81548163ffffffff021916908363ffffffff16021790555060608201518160020160046101000a81548163ffffffff021916908363ffffffff16021790555060808201518160020160086101000a81548161ffff021916908361ffff16021790555060a082015181600201600a6101000a81548161ffff021916908361ffff1602179055505050600060016004805490506110d09190612242565b9050336005600083815260200190815260200160002060006101000a81548173ffffffffffffffffffffffffffffffffffffffff021916908373ffffffffffffffffffffffffffffffffffffffff1602179055506111776001600660003373ffffffffffffffffffffffffffffffffffffffff1673ffffffffffffffffffffffffffffffffffffffff1681526020019081526020016000205461141890919063ffffffff16565b600660003373ffffffffffffffffffffffffffffffffffffffff1673ffffffffffffffffffffffffffffffffffffffff168152602001908152602001600020819055507f88f026aacbbecc90c18411df4b1185fd8d9be2470f1962f192bf84a27d0704b78184846040516111ed939291906123ef565b60405180910390a1505050565b600073ffffffffffffffffffffffffffffffffffffffff168173ffffffffffffffffffffffffffffffffffffffff160361123357600080fd5b8073ffffffffffffffffffffffffffffffffffffffff1660008054906101000a900473ffffffffffffffffffffffffffffffffffffffff1673ffffffffffffffffffffffffffffffffffffffff167f8be0079c531659141344cd1fd0a4f28419497f9722a3daafe3b4186f6b6457e060405160405180910390a3806000806101000a81548173ffffffffffffffffffffffffffffffffffffffff021916908373ffffffffffffffffffffffffffffffffffffffff16021790555050565b6000428260020160049054906101000a900463ffffffff1663ffffffff1611159050919050565b60606000600161132684611444565b01905060008167ffffffffffffffff81111561134557611344611930565b5b6040519080825280601f01601f1916602001820160405280156113775781602001600182028036833780820191505090505b509050600082602001820190505b6001156113da578080600190039150507f3031323334353637383961626364656600000000000000000000000000000000600a86061a8153600a85816113ce576113cd6120c9565b5b04945060008503611385575b819350505050919050565b600354426113f39190612129565b8160020160046101000a81548163ffffffff021916908363ffffffff16021790555050565b60008082846114279190612129565b90508381101561143a5761143961209a565b5b8091505092915050565b600080600090507a184f03e93ff9f4daa797ed6e38ed64bf6a1f01000000000000000083106114a2577a184f03e93ff9f4daa797ed6e38ed64bf6a1f0100000000000000008381611498576114976120c9565b5b0492506040810190505b6d04ee2d6d415b85acef810000000083106114df576d04ee2d6d415b85acef810000000083816114d5576114d46120c9565b5b0492506020810190505b662386f26fc10000831061150e57662386f26fc100008381611504576115036120c9565b5b0492506010810190505b6305f5e1008310611537576305f5e100838161152d5761152c6120c9565b5b0492506008810190505b612710831061155c576127108381611552576115516120c9565b5b0492506004810190505b6064831061157f5760648381611575576115746120c9565b5b0492506002810190505b600a831061158e576001810190505b80915050919050565b6000604051905090565b600080fd5b600080fd5b6000819050919050565b6115be816115ab565b81146115c957600080fd5b50565b6000813590506115db816115b5565b92915050565b6000602082840312156115f7576115f66115a1565b5b6000611605848285016115cc565b91505092915050565b60008060408385031215611625576116246115a1565b5b6000611633858286016115cc565b9250506020611644858286016115cc565b9150509250929050565b600081519050919050565b600082825260208201905092915050565b60005b8381101561168857808201518184015260208101905061166d565b60008484015250505050565b6000601f19601f8301169050919050565b60006116b08261164e565b6116ba8185611659565b93506116ca81856020860161166a565b6116d381611694565b840191505092915050565b6116e7816115ab565b82525050565b600063ffffffff82169050919050565b611706816116ed565b82525050565b600061ffff82169050919050565b6117238161170c565b82525050565b600060c082019050818103600083015261174381896116a5565b905061175260208301886116de565b61175f60408301876116fd565b61176c60608301866116fd565b611779608083018561171a565b61178660a083018461171a565b979650505050505050565b600073ffffffffffffffffffffffffffffffffffffffff82169050919050565b60006117bc82611791565b9050919050565b6117cc816117b1565b81146117d757600080fd5b50565b6000813590506117e9816117c3565b92915050565b600060208284031215611805576118046115a1565b5b6000611813848285016117da565b91505092915050565b600081519050919050565b600082825260208201905092915050565b6000819050602082019050919050565b611851816115ab565b82525050565b60006118638383611848565b60208301905092915050565b6000602082019050919050565b60006118878261181c565b6118918185611827565b935061189c83611838565b8060005b838110156118cd5781516118b48882611857565b97506118bf8361186f565b9250506001810190506118a0565b5085935050505092915050565b600060208201905081810360008301526118f4818461187c565b905092915050565b611905816117b1565b82525050565b600060208201905061192060008301846118fc565b92915050565b600080fd5b600080fd5b7f4e487b7100000000000000000000000000000000000000000000000000000000600052604160045260246000fd5b61196882611694565b810181811067ffffffffffffffff8211171561198757611986611930565b5b80604052505050565b600061199a611597565b90506119a6828261195f565b919050565b600067ffffffffffffffff8211156119c6576119c5611930565b5b6119cf82611694565b9050602081019050919050565b82818337600083830152505050565b60006119fe6119f9846119ab565b611990565b905082815260208101848484011115611a1a57611a1961192b565b5b611a258482856119dc565b509392505050565b600082601f830112611a4257611a41611926565b5b8135611a528482602086016119eb565b91505092915050565b600060208284031215611a7157611a706115a1565b5b600082013567ffffffffffffffff811115611a8f57611a8e6115a6565b5b611a9b84828501611a2d565b91505092915050565b60008115159050919050565b611ab981611aa4565b82525050565b6000602082019050611ad46000830184611ab0565b92915050565b600080fd5b600080fd5b60008083601f840112611afa57611af9611926565b5b8235905067ffffffffffffffff811115611b1757611b16611ada565b5b602083019150836001820283011115611b3357611b32611adf565b5b9250929050565b600080600060408486031215611b5357611b526115a1565b5b6000611b61868287016115cc565b935050602084013567ffffffffffffffff811115611b8257611b816115a6565b5b611b8e86828701611ae4565b92509250509250925092565b7f4e487b7100000000000000000000000000000000000000000000000000000000600052603260045260246000fd5b6000602082019050611bde60008301846116de565b92915050565b611bed81611aa4565b8114611bf857600080fd5b50565b600081519050611c0a81611be4565b92915050565b600081519050611c1f816115b5565b92915050565b6000806000806000806000806000806101408b8d031215611c4957611c486115a1565b5b6000611c578d828e01611bfb565b9a50506020611c688d828e01611bfb565b9950506040611c798d828e01611c10565b9850506060611c8a8d828e01611c10565b9750506080611c9b8d828e01611c10565b96505060a0611cac8d828e01611c10565b95505060c0611cbd8d828e01611c10565b94505060e0611cce8d828e01611c10565b935050610100611ce08d828e01611c10565b925050610120611cf28d828e01611c10565b9150509295989b9194979a5092959850565b7f4e487b7100000000000000000000000000000000000000000000000000000000600052602260045260246000fd5b60006002820490506001821680611d4b57607f821691505b602082108103611d5e57611d5d611d04565b5b50919050565b7f4e487b7100000000000000000000000000000000000000000000000000000000600052601160045260246000fd5b6000611d9e826115ab565b91507fffffffffffffffffffffffffffffffffffffffffffffffffffffffffffffffff8203611dd057611dcf611d64565b5b600182019050919050565b600082905092915050565b60008190508160005260206000209050919050565b60006020601f8301049050919050565b600082821b905092915050565b600060088302611e487fffffffffffffffffffffffffffffffffffffffffffffffffffffffffffffffff82611e0b565b611e528683611e0b565b95508019841693508086168417925050509392505050565b6000819050919050565b6000611e8f611e8a611e85846115ab565b611e6a565b6115ab565b9050919050565b6000819050919050565b611ea983611e74565b611ebd611eb582611e96565b848454611e18565b825550505050565b600090565b611ed2611ec5565b611edd818484611ea0565b505050565b5b81811015611f0157611ef6600082611eca565b600181019050611ee3565b5050565b601f821115611f4657611f1781611de6565b611f2084611dfb565b81016020851015611f2f578190505b611f43611f3b85611dfb565b830182611ee2565b50505b505050565b600082821c905092915050565b6000611f6960001984600802611f4b565b1980831691505092915050565b6000611f828383611f58565b9150826002028217905092915050565b611f9c8383611ddb565b67ffffffffffffffff811115611fb557611fb4611930565b5b611fbf8254611d33565b611fca828285611f05565b6000601f831160018114611ff95760008415611fe7578287013590505b611ff18582611f76565b865550612059565b601f19841661200786611de6565b60005b8281101561202f5784890135825560018201915060208501945060208101905061200a565b8683101561204c5784890135612048601f891682611f58565b8355505b6001600288020188555050505b50505050505050565b600061206d826116ed565b9150612078836116ed565b9250828201905063ffffffff81111561209457612093611d64565b5b92915050565b7f4e487b7100000000000000000000000000000000000000000000000000000000600052600160045260246000fd5b7f4e487b7100000000000000000000000000000000000000000000000000000000600052601260045260246000fd5b6000612103826115ab565b915061210e836115ab565b92508261211e5761211d6120c9565b5b828206905092915050565b6000612134826115ab565b915061213f836115ab565b925082820190508082111561215757612156611d64565b5b92915050565b6000612168826115ab565b9150612173836115ab565b925082612183576121826120c9565b5b828204905092915050565b600081905092915050565b7f6b69747479000000000000000000000000000000000000000000000000000000600082015250565b60006121cf60058361218e565b91506121da82612199565b600582019050919050565b60006121f0826121c2565b9150819050919050565b60006122058261164e565b61220f818561218e565b935061221f81856020860161166a565b80840191505092915050565b600061223782846121fa565b915081905092915050565b600061224d826115ab565b9150612258836115ab565b92508282039050818111156122705761226f611d64565b5b92915050565b6000815461228381611d33565b61228d818661218e565b945060018216600081146122a857600181146122bd576122f0565b60ff19831686528115158202860193506122f0565b6122c685611de6565b60005b838110156122e8578154818901526001820191506020810190506122c9565b838801955050505b50505092915050565b60006123058285612276565b915061231182846121fa565b91508190509392505050565b6123268261164e565b67ffffffffffffffff81111561233f5761233e611930565b5b6123498254611d33565b612354828285611f05565b600060209050601f8311600181146123875760008415612375578287015190505b61237f8582611f76565b8655506123e7565b601f19841661239586611de6565b60005b828110156123bd57848901518255600182019150602085019450602081019050612398565b868310156123da57848901516123d6601f891682611f58565b8355505b6001600288020188555050505b505050505050565b600060608201905061240460008301866116de565b818103602083015261241681856116a5565b905061242560408301846116de565b94935050505056fea26469706673582212201d7a2bc246b29138684f4742ec88d40be33407798af5fa51d4d39e96d7cf854064736f6c63430008110033",
  "immutableReferences": {},
  "source": "// SPDX-License-Identifier: MIT\npragma solidity >=0.5.0 <0.9.0;\n\nimport \"./zombiefeeding.sol\";\n\ncontract ZombieHelper is ZombieFeeding {\n\n  using SafeMath32 for uint32;\n\n  uint levelUpFee = 0.001 ether;\n\n  // require\n  modifier aboveLevel(uint _level, uint _zombieId) {\n    require(zombies[_zombieId].level >= _level);\n    _;\n  }\n\n  function withdraw() external onlyOwner {\n    // contractdeployaccount\n    address payable _owner = payable(owner());\n    // contractaccountdeployaccount\n    _owner.transfer(address(this).balance);\n  }\n\n  // ether \n  function setLevelUpFee(uint _fee) external onlyOwner {\n    levelUpFee = _fee;\n  }\n\n  // payable modifierEth.\n  // msg.value frontendEth.\n  function levelUp(uint _zombieId) external payable {\n    require(msg.value == levelUpFee);\n    zombies[_zombieId].level = zombies[_zombieId].level.add(1);\n  }\n\n  // level2\n  // calldata external. (memory)\n  function changeName(uint _zombieId, string calldata _newName) external aboveLevel(2, _zombieId) onlyOwnerOf(_zombieId) {\n    zombies[_zombieId].name = _newName;\n  }\n\n  // level20\n  function changeDna(uint _zombieId, uint _newDna) external aboveLevel(20, _zombieId) onlyOwnerOf(_zombieId) {\n    zombies[_zombieId].dna = _newDna;\n  }\n\n  // external view gas\n  // internal view gas\n  function getZombiesByOwner(address _owner) external view returns(uint[] memory) {\n    // storagegasmemory\n    // storage  mapping(address => uint[]) accountzombie\n    // zombiezombiegas\n    // zombieloopstorage\n    uint[] memory result = new uint[](ownerZombieCount[_owner]);\n\n    uint counter = 0;\n    for (uint i = 0; i < zombies.length; i++) {\n      if(zombieToOwner[i] == _owner) {\n        result[counter] = i;\n        counter++;\n      }\n    }\n\n    return result;\n  }\n\n  function getAllZombies() external view returns(uint[] memory) {\n    uint[] memory result = new uint[](zombies.length);\n\n    uint counter = 0;\n    for (uint i = 0; i < zombies.length; i++) {\n      result[counter] = i;\n      counter++;\n    }\n\n    return result;\n  }\n}",
  "sourcePath": "/Users/takumi/Desktop/works/Repositories/kumahiyo/blockchain/crypto-zombies/backend/contracts/zombiehelper.sol",
  "compiler": {
    "name": "solc",
    "version": "0.8.17+commit.8df45f5f.Emscripten.clang"
  },
  "schemaVersion": "3.4.10",
  "updatedAt": "2022-12-20T12:05:30.732Z",
  "devdoc": {
    "kind": "dev",
    "methods": {
      "isOwner()": {
        "returns": {
          "_0": "true if `msg.sender` is the owner of the contract."
        }
      },
      "owner()": {
        "returns": {
          "_0": "the address of the owner."
        }
      },
      "renounceOwnership()": {
        "details": "Allows the current owner to relinquish control of the contract."
      },
      "transferOwnership(address)": {
        "details": "Allows the current owner to transfer control of the contract to a newOwner.",
        "params": {
          "newOwner": "The address to transfer ownership to."
        }
      }
    },
    "version": 1
  },
  "userdoc": {
    "kind": "user",
    "methods": {
      "renounceOwnership()": {
        "notice": "Renouncing to ownership will leave the contract without an owner. It will not be possible to call the functions with the `onlyOwner` modifier anymore."
      }
    },
    "version": 1
  }
}