{
  "contractName": "ZombieOwnership",
  "abi": [
    {
      "anonymous": false,
      "inputs": [
        {
          "indexed": true,
          "internalType": "address",
          "name": "_owner",
          "type": "address"
        },
        {
          "indexed": true,
          "internalType": "address",
          "name": "_approved",
          "type": "address"
        },
        {
          "indexed": true,
          "internalType": "uint256",
          "name": "_tokenId",
          "type": "uint256"
        }
      ],
      "name": "Approval",
      "type": "event"
    },
    {
      "anonymous": false,
      "inputs": [
        {
          "indexed": false,
          "internalType": "uint256",
          "name": "zombieId",
          "type": "uint256"
        },
        {
          "indexed": false,
          "internalType": "string",
          "name": "name",
          "type": "string"
        },
        {
          "indexed": false,
          "internalType": "uint256",
          "name": "dna",
          "type": "uint256"
        }
      ],
      "name": "NewZombie",
      "type": "event"
    },
    {
      "anonymous": false,
      "inputs": [
        {
          "indexed": true,
          "internalType": "address",
          "name": "previousOwner",
          "type": "address"
        },
        {
          "indexed": true,
          "internalType": "address",
          "name": "newOwner",
          "type": "address"
        }
      ],
      "name": "OwnershipTransferred",
      "type": "event"
    },
    {
      "anonymous": false,
      "inputs": [
        {
          "indexed": true,
          "internalType": "address",
          "name": "_from",
          "type": "address"
        },
        {
          "indexed": true,
          "internalType": "address",
          "name": "_to",
          "type": "address"
        },
        {
          "indexed": true,
          "internalType": "uint256",
          "name": "_tokenId",
          "type": "uint256"
        }
      ],
      "name": "Transfer",
      "type": "event"
    },
    {
      "inputs": [
        {
          "internalType": "uint256",
          "name": "_zombieId",
          "type": "uint256"
        },
        {
          "internalType": "uint256",
          "name": "_targetId",
          "type": "uint256"
        }
      ],
      "name": "attack",
      "outputs": [],
      "stateMutability": "nonpayable",
      "type": "function"
    },
    {
      "inputs": [
        {
          "internalType": "uint256",
          "name": "_zombieId",
          "type": "uint256"
        },
        {
          "internalType": "uint256",
          "name": "_newDna",
          "type": "uint256"
        }
      ],
      "name": "changeDna",
      "outputs": [],
      "stateMutability": "nonpayable",
      "type": "function"
    },
    {
      "inputs": [
        {
          "internalType": "uint256",
          "name": "_zombieId",
          "type": "uint256"
        },
        {
          "internalType": "string",
          "name": "_newName",
          "type": "string"
        }
      ],
      "name": "changeName",
      "outputs": [],
      "stateMutability": "nonpayable",
      "type": "function"
    },
    {
      "inputs": [
        {
          "internalType": "string",
          "name": "_name",
          "type": "string"
        }
      ],
      "name": "createRandomZombie",
      "outputs": [],
      "stateMutability": "nonpayable",
      "type": "function"
    },
    {
      "inputs": [
        {
          "internalType": "uint256",
          "name": "_zombieId",
          "type": "uint256"
        },
        {
          "internalType": "uint256",
          "name": "_kittyId",
          "type": "uint256"
        }
      ],
      "name": "feedOnKitty",
      "outputs": [],
      "stateMutability": "nonpayable",
      "type": "function"
    },
    {
      "inputs": [],
      "name": "getAllZombies",
      "outputs": [
        {
          "internalType": "uint256[]",
          "name": "",
          "type": "uint256[]"
        }
      ],
      "stateMutability": "view",
      "type": "function"
    },
    {
      "inputs": [
        {
          "internalType": "address",
          "name": "_owner",
          "type": "address"
        }
      ],
      "name": "getZombiesByOwner",
      "outputs": [
        {
          "internalType": "uint256[]",
          "name": "",
          "type": "uint256[]"
        }
      ],
      "stateMutability": "view",
      "type": "function"
    },
    {
      "inputs": [],
      "name": "isOwner",
      "outputs": [
        {
          "internalType": "bool",
          "name": "",
          "type": "bool"
        }
      ],
      "stateMutability": "view",
      "type": "function"
    },
    {
      "inputs": [
        {
          "internalType": "uint256",
          "name": "_zombieId",
          "type": "uint256"
        }
      ],
      "name": "levelUp",
      "outputs": [],
      "stateMutability": "payable",
      "type": "function"
    },
    {
      "inputs": [],
      "name": "owner",
      "outputs": [
        {
          "internalType": "address",
          "name": "",
          "type": "address"
        }
      ],
      "stateMutability": "view",
      "type": "function"
    },
    {
      "inputs": [],
      "name": "renounceOwnership",
      "outputs": [],
      "stateMutability": "nonpayable",
      "type": "function"
    },
    {
      "inputs": [
        {
          "internalType": "address",
          "name": "_address",
          "type": "address"
        }
      ],
      "name": "setKittyContractAddress",
      "outputs": [],
      "stateMutability": "nonpayable",
      "type": "function"
    },
    {
      "inputs": [
        {
          "internalType": "uint256",
          "name": "_fee",
          "type": "uint256"
        }
      ],
      "name": "setLevelUpFee",
      "outputs": [],
      "stateMutability": "nonpayable",
      "type": "function"
    },
    {
      "inputs": [
        {
          "internalType": "address",
          "name": "newOwner",
          "type": "address"
        }
      ],
      "name": "transferOwnership",
      "outputs": [],
      "stateMutability": "nonpayable",
      "type": "function"
    },
    {
      "inputs": [],
      "name": "withdraw",
      "outputs": [],
      "stateMutability": "nonpayable",
      "type": "function"
    },
    {
      "inputs": [
        {
          "internalType": "uint256",
          "name": "",
          "type": "uint256"
        }
      ],
      "name": "zombieToOwner",
      "outputs": [
        {
          "internalType": "address",
          "name": "",
          "type": "address"
        }
      ],
      "stateMutability": "view",
      "type": "function"
    },
    {
      "inputs": [
        {
          "internalType": "uint256",
          "name": "",
          "type": "uint256"
        }
      ],
      "name": "zombies",
      "outputs": [
        {
          "internalType": "string",
          "name": "name",
          "type": "string"
        },
        {
          "internalType": "uint256",
          "name": "dna",
          "type": "uint256"
        },
        {
          "internalType": "uint32",
          "name": "level",
          "type": "uint32"
        },
        {
          "internalType": "uint32",
          "name": "readyTime",
          "type": "uint32"
        },
        {
          "internalType": "uint16",
          "name": "winCount",
          "type": "uint16"
        },
        {
          "internalType": "uint16",
          "name": "lossCount",
          "type": "uint16"
        }
      ],
      "stateMutability": "view",
      "type": "function"
    },
    {
      "inputs": [
        {
          "internalType": "address",
          "name": "_owner",
          "type": "address"
        }
      ],
      "name": "balanceOf",
      "outputs": [
        {
          "internalType": "uint256",
          "name": "",
          "type": "uint256"
        }
      ],
      "stateMutability": "view",
      "type": "function"
    },
    {
      "inputs": [
        {
          "internalType": "uint256",
          "name": "_tokenId",
          "type": "uint256"
        }
      ],
      "name": "ownerOf",
      "outputs": [
        {
          "internalType": "address",
          "name": "",
          "type": "address"
        }
      ],
      "stateMutability": "view",
      "type": "function"
    },
    {
      "inputs": [
        {
          "internalType": "address",
          "name": "_from",
          "type": "address"
        },
        {
          "internalType": "address",
          "name": "_to",
          "type": "address"
        },
        {
          "internalType": "uint256",
          "name": "_tokenId",
          "type": "uint256"
        }
      ],
      "name": "transferFrom",
      "outputs": [],
      "stateMutability": "payable",
      "type": "function"
    },
    {
      "inputs": [
        {
          "internalType": "address",
          "name": "_approved",
          "type": "address"
        },
        {
          "internalType": "uint256",
          "name": "_tokenId",
          "type": "uint256"
        }
      ],
      "name": "approve",
      "outputs": [],
      "stateMutability": "payable",
      "type": "function"
    }
  ],
  "bytecode": "0x60806040526010600155600154600a6200001a919062000295565b6002556201518060035566038d7ea4c6800060085560006009556046600a553480156200004657600080fd5b50336000806101000a81548173ffffffffffffffffffffffffffffffffffffffff021916908373ffffffffffffffffffffffffffffffffffffffff16021790555060008054906101000a900473ffffffffffffffffffffffffffffffffffffffff1673ffffffffffffffffffffffffffffffffffffffff16600073ffffffffffffffffffffffffffffffffffffffff167f8be0079c531659141344cd1fd0a4f28419497f9722a3daafe3b4186f6b6457e060405160405180910390a3620002e6565b7f4e487b7100000000000000000000000000000000000000000000000000000000600052601160045260246000fd5b60008160011c9050919050565b6000808291508390505b600185111562000196578086048111156200016e576200016d62000108565b5b60018516156200017e5780820291505b80810290506200018e8562000137565b94506200014e565b94509492505050565b600082620001b1576001905062000284565b81620001c1576000905062000284565b8160018114620001da5760028114620001e5576200021b565b600191505062000284565b60ff841115620001fa57620001f962000108565b5b8360020a91508482111562000214576200021362000108565b5b5062000284565b5060208310610133831016604e8410600b8410161715620002555782820a9050838111156200024f576200024e62000108565b5b62000284565b62000264848484600162000144565b925090508184048111156200027e576200027d62000108565b5b81810290505b9392505050565b6000819050919050565b6000620002a2826200028b565b9150620002af836200028b565b9250620002de7fffffffffffffffffffffffffffffffffffffffffffffffffffffffffffffffff84846200019f565b905092915050565b612e9f80620002f66000396000f3fe60806040526004361061012a5760003560e01c80636352211e116100ab5780638f32d59b1161006f5780638f32d59b146103b6578063ab170a6d146103e1578063c39cbef11461040c578063ccf670f814610435578063e1fa76381461045e578063f2fde38b146104875761012a565b80636352211e146102d157806370a082311461030e578063715018a61461034b5780637bff0a01146103625780638da5cb5b1461038b5761012a565b80633ccfd60b116100f25780633ccfd60b146101ee5780634412e10414610205578063528b7b8f146102425780635f4623f11461027f5780635faf2880146102a85761012a565b8063095ea7b31461012f5780630ce90ec21461014b57806317a7f4cc146101675780632052465e1461019057806323b872dd146101d2575b600080fd5b61014960048036038101906101449190611f0c565b6104b0565b005b61016560048036038101906101609190611f4c565b6105ce565b005b34801561017357600080fd5b5061018e60048036038101906101899190611f79565b610671565b005b34801561019c57600080fd5b506101b760048036038101906101b29190611f4c565b61078f565b6040516101c996959493929190612094565b60405180910390f35b6101ec60048036038101906101e791906120fc565b61089f565b005b3480156101fa57600080fd5b50610203610983565b005b34801561021157600080fd5b5061022c6004803603810190610227919061214f565b6109ea565b604051610239919061223a565b60405180910390f35b34801561024e57600080fd5b5061026960048036038101906102649190611f4c565b610b3c565b604051610276919061226b565b60405180910390f35b34801561028b57600080fd5b506102a660048036038101906102a1919061214f565b610b6f565b005b3480156102b457600080fd5b506102cf60048036038101906102ca9190611f79565b610bc4565b005b3480156102dd57600080fd5b506102f860048036038101906102f39190611f4c565b610cac565b604051610305919061226b565b60405180910390f35b34801561031a57600080fd5b506103356004803603810190610330919061214f565b610ce9565b6040516103429190612286565b60405180910390f35b34801561035757600080fd5b50610360610d32565b005b34801561036e57600080fd5b50610389600480360381019061038491906123d6565b610e01565b005b34801561039757600080fd5b506103a0610e68565b6040516103ad919061226b565b60405180910390f35b3480156103c257600080fd5b506103cb610e91565b6040516103d8919061243a565b60405180910390f35b3480156103ed57600080fd5b506103f6610ee8565b604051610403919061223a565b60405180910390f35b34801561041857600080fd5b50610433600480360381019061042e91906124b5565b610f97565b005b34801561044157600080fd5b5061045c60048036038101906104579190611f4c565b61108b565b005b34801561046a57600080fd5b5061048560048036038101906104809190611f79565b6110a6565b005b34801561049357600080fd5b506104ae60048036038101906104a9919061214f565b611340565b005b806005600082815260200190815260200160002060009054906101000a900473ffffffffffffffffffffffffffffffffffffffff1673ffffffffffffffffffffffffffffffffffffffff163373ffffffffffffffffffffffffffffffffffffffff161461051c57600080fd5b82600b600084815260200190815260200160002060006101000a81548173ffffffffffffffffffffffffffffffffffffffff021916908373ffffffffffffffffffffffffffffffffffffffff160217905550818373ffffffffffffffffffffffffffffffffffffffff163373ffffffffffffffffffffffffffffffffffffffff167f8c5be1e5ebec7d5bd14f71427d1e84f3dd0314c0f7b2291e5b200ac8c7c3b92560405160405180910390a4505050565b60085434146105dc57600080fd5b61062b6001600483815481106105f5576105f4612515565b5b906000526020600020906003020160020160009054906101000a900463ffffffff1663ffffffff1661135d90919063ffffffff16565b6004828154811061063f5761063e612515565b5b906000526020600020906003020160020160006101000a81548163ffffffff021916908363ffffffff16021790555050565b6000600760009054906101000a900473ffffffffffffffffffffffffffffffffffffffff1673ffffffffffffffffffffffffffffffffffffffff1663e98b7f4d836040518263ffffffff1660e01b81526004016106ce9190612286565b61014060405180830381865afa1580156106ec573d6000803e3d6000fd5b505050506040513d601f19601f820116820180604052508101906107109190612585565b9091929394959697985090919293949596975090919293949596509091929394955090919293945090919293509091925090915090508091505061078a83826040518060400160405280600581526020017f6b69747479000000000000000000000000000000000000000000000000000000815250611395565b505050565b6004818154811061079f57600080fd5b90600052602060002090600302016000915090508060000180546107c290612693565b80601f01602080910402602001604051908101604052809291908181526020018280546107ee90612693565b801561083b5780601f106108105761010080835404028352916020019161083b565b820191906000526020600020905b81548152906001019060200180831161081e57829003601f168201915b5050505050908060010154908060020160009054906101000a900463ffffffff16908060020160049054906101000a900463ffffffff16908060020160089054906101000a900461ffff169080600201600a9054906101000a900461ffff16905086565b3373ffffffffffffffffffffffffffffffffffffffff166005600083815260200190815260200160002060009054906101000a900473ffffffffffffffffffffffffffffffffffffffff1673ffffffffffffffffffffffffffffffffffffffff16148061096a57503373ffffffffffffffffffffffffffffffffffffffff16600b600083815260200190815260200160002060009054906101000a900473ffffffffffffffffffffffffffffffffffffffff1673ffffffffffffffffffffffffffffffffffffffff16145b61097357600080fd5b61097e838383611579565b505050565b61098b610e91565b61099457600080fd5b600061099e610e68565b90508073ffffffffffffffffffffffffffffffffffffffff166108fc479081150290604051600060405180830381858888f193505050501580156109e6573d6000803e3d6000fd5b5050565b60606000600660008473ffffffffffffffffffffffffffffffffffffffff1673ffffffffffffffffffffffffffffffffffffffff1681526020019081526020016000205467ffffffffffffffff811115610a4757610a466122ab565b5b604051908082528060200260200182016040528015610a755781602001602082028036833780820191505090505b5090506000805b600480549050811015610b31578473ffffffffffffffffffffffffffffffffffffffff166005600083815260200190815260200160002060009054906101000a900473ffffffffffffffffffffffffffffffffffffffff1673ffffffffffffffffffffffffffffffffffffffff1603610b1e5780838381518110610b0357610b02612515565b5b6020026020010181815250508180610b1a906126f3565b9250505b8080610b29906126f3565b915050610a7c565b508192505050919050565b60056020528060005260406000206000915054906101000a900473ffffffffffffffffffffffffffffffffffffffff1681565b610b77610e91565b610b8057600080fd5b80600760006101000a81548173ffffffffffffffffffffffffffffffffffffffff021916908373ffffffffffffffffffffffffffffffffffffffff16021790555050565b6014828160048281548110610bdc57610bdb612515565b5b906000526020600020906003020160020160009054906101000a900463ffffffff1663ffffffff161015610c0f57600080fd5b836005600082815260200190815260200160002060009054906101000a900473ffffffffffffffffffffffffffffffffffffffff1673ffffffffffffffffffffffffffffffffffffffff163373ffffffffffffffffffffffffffffffffffffffff1614610c7b57600080fd5b8360048681548110610c9057610c8f612515565b5b9060005260206000209060030201600101819055505050505050565b60006005600083815260200190815260200160002060009054906101000a900473ffffffffffffffffffffffffffffffffffffffff169050919050565b6000600660008373ffffffffffffffffffffffffffffffffffffffff1673ffffffffffffffffffffffffffffffffffffffff168152602001908152602001600020549050919050565b610d3a610e91565b610d4357600080fd5b600073ffffffffffffffffffffffffffffffffffffffff1660008054906101000a900473ffffffffffffffffffffffffffffffffffffffff1673ffffffffffffffffffffffffffffffffffffffff167f8be0079c531659141344cd1fd0a4f28419497f9722a3daafe3b4186f6b6457e060405160405180910390a360008060006101000a81548173ffffffffffffffffffffffffffffffffffffffff021916908373ffffffffffffffffffffffffffffffffffffffff160217905550565b6000600660003373ffffffffffffffffffffffffffffffffffffffff1673ffffffffffffffffffffffffffffffffffffffff1681526020019081526020016000205414610e4d57600080fd5b6000610e5882611757565b9050610e64828261179c565b5050565b60008060009054906101000a900473ffffffffffffffffffffffffffffffffffffffff16905090565b60008060009054906101000a900473ffffffffffffffffffffffffffffffffffffffff1673ffffffffffffffffffffffffffffffffffffffff163373ffffffffffffffffffffffffffffffffffffffff1614905090565b6060600060048054905067ffffffffffffffff811115610f0b57610f0a6122ab565b5b604051908082528060200260200182016040528015610f395781602001602082028036833780820191505090505b5090506000805b600480549050811015610f8e5780838381518110610f6157610f60612515565b5b6020026020010181815250508180610f78906126f3565b9250508080610f86906126f3565b915050610f40565b50819250505090565b6002838160048281548110610faf57610fae612515565b5b906000526020600020906003020160020160009054906101000a900463ffffffff1663ffffffff161015610fe257600080fd5b846005600082815260200190815260200160002060009054906101000a900473ffffffffffffffffffffffffffffffffffffffff1673ffffffffffffffffffffffffffffffffffffffff163373ffffffffffffffffffffffffffffffffffffffff161461104e57600080fd5b84846004888154811061106457611063612515565b5b906000526020600020906003020160000191826110829291906128f2565b50505050505050565b611093610e91565b61109c57600080fd5b8060088190555050565b816005600082815260200190815260200160002060009054906101000a900473ffffffffffffffffffffffffffffffffffffffff1673ffffffffffffffffffffffffffffffffffffffff163373ffffffffffffffffffffffffffffffffffffffff161461111257600080fd5b60006004848154811061112857611127612515565b5b9060005260206000209060030201905060006004848154811061114e5761114d612515565b5b90600052602060002090600302019050600061116a6064611a0c565b9050600a54811161129e5761119f60018460020160089054906101000a900461ffff1661ffff16611a6c90919063ffffffff16565b8360020160086101000a81548161ffff021916908361ffff1602179055506111eb60018460020160009054906101000a900463ffffffff1663ffffffff1661135d90919063ffffffff16565b8360020160006101000a81548163ffffffff021916908363ffffffff160217905550611237600183600201600a9054906101000a900461ffff1661ffff16611a6c90919063ffffffff16565b82600201600a6101000a81548161ffff021916908361ffff1602179055506112998683600101546040518060400160405280600681526020017f7a6f6d6269650000000000000000000000000000000000000000000000000000815250611395565b611338565b6112c8600184600201600a9054906101000a900461ffff1661ffff16611a6c90919063ffffffff16565b83600201600a6101000a81548161ffff021916908361ffff16021790555061131060018360020160089054906101000a900461ffff1661ffff16611a6c90919063ffffffff16565b8260020160086101000a81548161ffff021916908361ffff16021790555061133783611aa0565b5b505050505050565b611348610e91565b61135157600080fd5b61135a81611ad3565b50565b600080828461136c91906129c2565b90508363ffffffff168163ffffffff16101561138b5761138a6129fa565b5b8091505092915050565b826005600082815260200190815260200160002060009054906101000a900473ffffffffffffffffffffffffffffffffffffffff1673ffffffffffffffffffffffffffffffffffffffff163373ffffffffffffffffffffffffffffffffffffffff161461140157600080fd5b60006004858154811061141757611416612515565b5b9060005260206000209060030201905061143081611bc9565b61143957600080fd5b600254846114479190612a58565b93506000600285836001015461145d9190612a89565b6114679190612abd565b905060405160200161147890612b45565b604051602081830303815290604052805190602001208460405160200161149f9190612b8b565b60405160208183030381529060405280519060200120036114e15760636064826114c99190612a58565b826114d49190612ba2565b6114de9190612a89565b90505b60006001600660003373ffffffffffffffffffffffffffffffffffffffff1673ffffffffffffffffffffffffffffffffffffffff1681526020019081526020016000205461152f9190612a89565b90506115678360000161154183611bf0565b604051602001611552929190612c59565b6040516020818303038152906040528361179c565b61157083611aa0565b50505050505050565b6115cc6001600660008573ffffffffffffffffffffffffffffffffffffffff1673ffffffffffffffffffffffffffffffffffffffff16815260200190815260200160002054611cbe90919063ffffffff16565b600660008473ffffffffffffffffffffffffffffffffffffffff1673ffffffffffffffffffffffffffffffffffffffff168152602001908152602001600020819055506116626001600660008673ffffffffffffffffffffffffffffffffffffffff1673ffffffffffffffffffffffffffffffffffffffff16815260200190815260200160002054611cea90919063ffffffff16565b600660008573ffffffffffffffffffffffffffffffffffffffff1673ffffffffffffffffffffffffffffffffffffffff16815260200190815260200160002081905550816005600083815260200190815260200160002060006101000a81548173ffffffffffffffffffffffffffffffffffffffff021916908373ffffffffffffffffffffffffffffffffffffffff160217905550808273ffffffffffffffffffffffffffffffffffffffff168473ffffffffffffffffffffffffffffffffffffffff167fddf252ad1be2c89b69c2b068fc378daa952ba7f163c4a11628f55a4df523b3ef60405160405180910390a4505050565b6000808260405160200161176b9190612b8b565b6040516020818303038152906040528051906020012060001c9050600254816117949190612a58565b915050919050565b60046040518060c00160405280848152602001838152602001600163ffffffff168152602001600354426117d09190612a89565b63ffffffff168152602001600061ffff168152602001600061ffff168152509080600181540180825580915050600190039060005260206000209060030201600090919091909150600082015181600001908161182d9190612c7d565b506020820151816001015560408201518160020160006101000a81548163ffffffff021916908363ffffffff16021790555060608201518160020160046101000a81548163ffffffff021916908363ffffffff16021790555060808201518160020160086101000a81548161ffff021916908361ffff16021790555060a082015181600201600a6101000a81548161ffff021916908361ffff1602179055505050600060016004805490506118e29190612ba2565b9050336005600083815260200190815260200160002060006101000a81548173ffffffffffffffffffffffffffffffffffffffff021916908373ffffffffffffffffffffffffffffffffffffffff1602179055506119896001600660003373ffffffffffffffffffffffffffffffffffffffff1673ffffffffffffffffffffffffffffffffffffffff16815260200190815260200160002054611cbe90919063ffffffff16565b600660003373ffffffffffffffffffffffffffffffffffffffff1673ffffffffffffffffffffffffffffffffffffffff168152602001908152602001600020819055507f88f026aacbbecc90c18411df4b1185fd8d9be2470f1962f192bf84a27d0704b78184846040516119ff93929190612d4f565b60405180910390a1505050565b6000611a246001600954611cbe90919063ffffffff16565b600981905550814233600954604051602001611a4293929190612df6565b6040516020818303038152906040528051906020012060001c611a659190612a58565b9050919050565b6000808284611a7b9190612e33565b90508361ffff168161ffff161015611a9657611a956129fa565b5b8091505092915050565b60035442611aae9190612a89565b8160020160046101000a81548163ffffffff021916908363ffffffff16021790555050565b600073ffffffffffffffffffffffffffffffffffffffff168173ffffffffffffffffffffffffffffffffffffffff1603611b0c57600080fd5b8073ffffffffffffffffffffffffffffffffffffffff1660008054906101000a900473ffffffffffffffffffffffffffffffffffffffff1673ffffffffffffffffffffffffffffffffffffffff167f8be0079c531659141344cd1fd0a4f28419497f9722a3daafe3b4186f6b6457e060405160405180910390a3806000806101000a81548173ffffffffffffffffffffffffffffffffffffffff021916908373ffffffffffffffffffffffffffffffffffffffff16021790555050565b6000428260020160049054906101000a900463ffffffff1663ffffffff1611159050919050565b606060006001611bff84611d11565b01905060008167ffffffffffffffff811115611c1e57611c1d6122ab565b5b6040519080825280601f01601f191660200182016040528015611c505781602001600182028036833780820191505090505b509050600082602001820190505b600115611cb3578080600190039150507f3031323334353637383961626364656600000000000000000000000000000000600a86061a8153600a8581611ca757611ca6612a29565b5b04945060008503611c5e575b819350505050919050565b6000808284611ccd9190612a89565b905083811015611ce057611cdf6129fa565b5b8091505092915050565b600082821115611cfd57611cfc6129fa565b5b8183611d099190612ba2565b905092915050565b600080600090507a184f03e93ff9f4daa797ed6e38ed64bf6a1f0100000000000000008310611d6f577a184f03e93ff9f4daa797ed6e38ed64bf6a1f0100000000000000008381611d6557611d64612a29565b5b0492506040810190505b6d04ee2d6d415b85acef81000000008310611dac576d04ee2d6d415b85acef81000000008381611da257611da1612a29565b5b0492506020810190505b662386f26fc100008310611ddb57662386f26fc100008381611dd157611dd0612a29565b5b0492506010810190505b6305f5e1008310611e04576305f5e1008381611dfa57611df9612a29565b5b0492506008810190505b6127108310611e29576127108381611e1f57611e1e612a29565b5b0492506004810190505b60648310611e4c5760648381611e4257611e41612a29565b5b0492506002810190505b600a8310611e5b576001810190505b80915050919050565b6000604051905090565b600080fd5b600080fd5b600073ffffffffffffffffffffffffffffffffffffffff82169050919050565b6000611ea382611e78565b9050919050565b611eb381611e98565b8114611ebe57600080fd5b50565b600081359050611ed081611eaa565b92915050565b6000819050919050565b611ee981611ed6565b8114611ef457600080fd5b50565b600081359050611f0681611ee0565b92915050565b60008060408385031215611f2357611f22611e6e565b5b6000611f3185828601611ec1565b9250506020611f4285828601611ef7565b9150509250929050565b600060208284031215611f6257611f61611e6e565b5b6000611f7084828501611ef7565b91505092915050565b60008060408385031215611f9057611f8f611e6e565b5b6000611f9e85828601611ef7565b9250506020611faf85828601611ef7565b9150509250929050565b600081519050919050565b600082825260208201905092915050565b60005b83811015611ff3578082015181840152602081019050611fd8565b60008484015250505050565b6000601f19601f8301169050919050565b600061201b82611fb9565b6120258185611fc4565b9350612035818560208601611fd5565b61203e81611fff565b840191505092915050565b61205281611ed6565b82525050565b600063ffffffff82169050919050565b61207181612058565b82525050565b600061ffff82169050919050565b61208e81612077565b82525050565b600060c08201905081810360008301526120ae8189612010565b90506120bd6020830188612049565b6120ca6040830187612068565b6120d76060830186612068565b6120e46080830185612085565b6120f160a0830184612085565b979650505050505050565b60008060006060848603121561211557612114611e6e565b5b600061212386828701611ec1565b935050602061213486828701611ec1565b925050604061214586828701611ef7565b9150509250925092565b60006020828403121561216557612164611e6e565b5b600061217384828501611ec1565b91505092915050565b600081519050919050565b600082825260208201905092915050565b6000819050602082019050919050565b6121b181611ed6565b82525050565b60006121c383836121a8565b60208301905092915050565b6000602082019050919050565b60006121e78261217c565b6121f18185612187565b93506121fc83612198565b8060005b8381101561222d57815161221488826121b7565b975061221f836121cf565b925050600181019050612200565b5085935050505092915050565b6000602082019050818103600083015261225481846121dc565b905092915050565b61226581611e98565b82525050565b6000602082019050612280600083018461225c565b92915050565b600060208201905061229b6000830184612049565b92915050565b600080fd5b600080fd5b7f4e487b7100000000000000000000000000000000000000000000000000000000600052604160045260246000fd5b6122e382611fff565b810181811067ffffffffffffffff82111715612302576123016122ab565b5b80604052505050565b6000612315611e64565b905061232182826122da565b919050565b600067ffffffffffffffff821115612341576123406122ab565b5b61234a82611fff565b9050602081019050919050565b82818337600083830152505050565b600061237961237484612326565b61230b565b905082815260208101848484011115612395576123946122a6565b5b6123a0848285612357565b509392505050565b600082601f8301126123bd576123bc6122a1565b5b81356123cd848260208601612366565b91505092915050565b6000602082840312156123ec576123eb611e6e565b5b600082013567ffffffffffffffff81111561240a57612409611e73565b5b612416848285016123a8565b91505092915050565b60008115159050919050565b6124348161241f565b82525050565b600060208201905061244f600083018461242b565b92915050565b600080fd5b600080fd5b60008083601f840112612475576124746122a1565b5b8235905067ffffffffffffffff81111561249257612491612455565b5b6020830191508360018202830111156124ae576124ad61245a565b5b9250929050565b6000806000604084860312156124ce576124cd611e6e565b5b60006124dc86828701611ef7565b935050602084013567ffffffffffffffff8111156124fd576124fc611e73565b5b6125098682870161245f565b92509250509250925092565b7f4e487b7100000000000000000000000000000000000000000000000000000000600052603260045260246000fd5b61254d8161241f565b811461255857600080fd5b50565b60008151905061256a81612544565b92915050565b60008151905061257f81611ee0565b92915050565b6000806000806000806000806000806101408b8d0312156125a9576125a8611e6e565b5b60006125b78d828e0161255b565b9a505060206125c88d828e0161255b565b99505060406125d98d828e01612570565b98505060606125ea8d828e01612570565b97505060806125fb8d828e01612570565b96505060a061260c8d828e01612570565b95505060c061261d8d828e01612570565b94505060e061262e8d828e01612570565b9350506101006126408d828e01612570565b9250506101206126528d828e01612570565b9150509295989b9194979a5092959850565b7f4e487b7100000000000000000000000000000000000000000000000000000000600052602260045260246000fd5b600060028204905060018216806126ab57607f821691505b6020821081036126be576126bd612664565b5b50919050565b7f4e487b7100000000000000000000000000000000000000000000000000000000600052601160045260246000fd5b60006126fe82611ed6565b91507fffffffffffffffffffffffffffffffffffffffffffffffffffffffffffffffff82036127305761272f6126c4565b5b600182019050919050565b600082905092915050565b60008190508160005260206000209050919050565b60006020601f8301049050919050565b600082821b905092915050565b6000600883026127a87fffffffffffffffffffffffffffffffffffffffffffffffffffffffffffffffff8261276b565b6127b2868361276b565b95508019841693508086168417925050509392505050565b6000819050919050565b60006127ef6127ea6127e584611ed6565b6127ca565b611ed6565b9050919050565b6000819050919050565b612809836127d4565b61281d612815826127f6565b848454612778565b825550505050565b600090565b612832612825565b61283d818484612800565b505050565b5b818110156128615761285660008261282a565b600181019050612843565b5050565b601f8211156128a65761287781612746565b6128808461275b565b8101602085101561288f578190505b6128a361289b8561275b565b830182612842565b50505b505050565b600082821c905092915050565b60006128c9600019846008026128ab565b1980831691505092915050565b60006128e283836128b8565b9150826002028217905092915050565b6128fc838361273b565b67ffffffffffffffff811115612915576129146122ab565b5b61291f8254612693565b61292a828285612865565b6000601f8311600181146129595760008415612947578287013590505b61295185826128d6565b8655506129b9565b601f19841661296786612746565b60005b8281101561298f5784890135825560018201915060208501945060208101905061296a565b868310156129ac57848901356129a8601f8916826128b8565b8355505b6001600288020188555050505b50505050505050565b60006129cd82612058565b91506129d883612058565b9250828201905063ffffffff8111156129f4576129f36126c4565b5b92915050565b7f4e487b7100000000000000000000000000000000000000000000000000000000600052600160045260246000fd5b7f4e487b7100000000000000000000000000000000000000000000000000000000600052601260045260246000fd5b6000612a6382611ed6565b9150612a6e83611ed6565b925082612a7e57612a7d612a29565b5b828206905092915050565b6000612a9482611ed6565b9150612a9f83611ed6565b9250828201905080821115612ab757612ab66126c4565b5b92915050565b6000612ac882611ed6565b9150612ad383611ed6565b925082612ae357612ae2612a29565b5b828204905092915050565b600081905092915050565b7f6b69747479000000000000000000000000000000000000000000000000000000600082015250565b6000612b2f600583612aee565b9150612b3a82612af9565b600582019050919050565b6000612b5082612b22565b9150819050919050565b6000612b6582611fb9565b612b6f8185612aee565b9350612b7f818560208601611fd5565b80840191505092915050565b6000612b978284612b5a565b915081905092915050565b6000612bad82611ed6565b9150612bb883611ed6565b9250828203905081811115612bd057612bcf6126c4565b5b92915050565b60008154612be381612693565b612bed8186612aee565b94506001821660008114612c085760018114612c1d57612c50565b60ff1983168652811515820286019350612c50565b612c2685612746565b60005b83811015612c4857815481890152600182019150602081019050612c29565b838801955050505b50505092915050565b6000612c658285612bd6565b9150612c718284612b5a565b91508190509392505050565b612c8682611fb9565b67ffffffffffffffff811115612c9f57612c9e6122ab565b5b612ca98254612693565b612cb4828285612865565b600060209050601f831160018114612ce75760008415612cd5578287015190505b612cdf85826128d6565b865550612d47565b601f198416612cf586612746565b60005b82811015612d1d57848901518255600182019150602085019450602081019050612cf8565b86831015612d3a5784890151612d36601f8916826128b8565b8355505b6001600288020188555050505b505050505050565b6000606082019050612d646000830186612049565b8181036020830152612d768185612010565b9050612d856040830184612049565b949350505050565b6000819050919050565b612da8612da382611ed6565b612d8d565b82525050565b60008160601b9050919050565b6000612dc682612dae565b9050919050565b6000612dd882612dbb565b9050919050565b612df0612deb82611e98565b612dcd565b82525050565b6000612e028286612d97565b602082019150612e128285612ddf565b601482019150612e228284612d97565b602082019150819050949350505050565b6000612e3e82612077565b9150612e4983612077565b9250828201905061ffff811115612e6357612e626126c4565b5b9291505056fea26469706673582212205b1099867dd16bbfd727a255ce1fdc7fad0789acf2c4c8db93cf34df48ded02b64736f6c63430008110033",
  "immutableReferences": {},
  "source": "// SPDX-License-Identifier: MIT\npragma solidity >=0.5.0 <0.9.0;\n\nimport \"./zombieattack.sol\";\nimport \"./erc721.sol\";\n\ncontract ZombieOwnership is ZombieAttack, ERC721 {\n\n  using SafeMath for uint256;\n\n  // zombie \n  mapping (uint => address) zombieApprovals;\n\n  // override virtual\n  function balanceOf(address _owner) override external view returns (uint256) {\n    return ownerZombieCount[_owner];\n  }\n\n  function ownerOf(uint256 _tokenId) override external view returns (address) {\n    return zombieToOwner[_tokenId];\n  }\n\n  function _transfer(address _from, address _to, uint256 _tokenId) private {\n      ownerZombieCount[_to] = ownerZombieCount[_to].add(1);\n      ownerZombieCount[_from] = ownerZombieCount[_from].sub(1);\n      zombieToOwner[_tokenId] = _to;\n\n      emit Transfer(_from, _to, _tokenId);\n  }\n\n  function transferFrom(address _from, address _to, uint256 _tokenId) override external payable {\n    // zombie  or  transfer.\n    require(zombieToOwner[_tokenId] == msg.sender || zombieApprovals[_tokenId] == msg.sender);\n\n    _transfer(_from, _to, _tokenId);\n  }\n\n  // zombie\n  function approve(address _approved, uint256 _tokenId) override external payable onlyOwnerOf(_tokenId) {\n    // account\n    zombieApprovals[_tokenId] = _approved;\n    \n    emit Approval(msg.sender, _approved, _tokenId);\n  }\n}\n",
  "sourcePath": "/Users/takumi/Desktop/works/Repositories/kumahiyo/blockchain/crypto-zombies/backend/contracts/zombieownership.sol",
  "compiler": {
    "name": "solc",
    "version": "0.8.17+commit.8df45f5f.Emscripten.clang"
  },
  "schemaVersion": "3.4.10",
  "updatedAt": "2022-12-20T12:05:30.746Z",
  "devdoc": {
    "kind": "dev",
    "methods": {
      "isOwner()": {
        "returns": {
          "_0": "true if `msg.sender` is the owner of the contract."
        }
      },
      "owner()": {
        "returns": {
          "_0": "the address of the owner."
        }
      },
      "renounceOwnership()": {
        "details": "Allows the current owner to relinquish control of the contract."
      },
      "transferOwnership(address)": {
        "details": "Allows the current owner to transfer control of the contract to a newOwner.",
        "params": {
          "newOwner": "The address to transfer ownership to."
        }
      }
    },
    "version": 1
  },
  "userdoc": {
    "kind": "user",
    "methods": {
      "renounceOwnership()": {
        "notice": "Renouncing to ownership will leave the contract without an owner. It will not be possible to call the functions with the `onlyOwner` modifier anymore."
      }
    },
    "version": 1
  }
}