{
  "contractName": "ZombieAttack",
  "abi": [
    {
      "anonymous": false,
      "inputs": [
        {
          "indexed": false,
          "internalType": "uint256",
          "name": "zombieId",
          "type": "uint256"
        },
        {
          "indexed": false,
          "internalType": "string",
          "name": "name",
          "type": "string"
        },
        {
          "indexed": false,
          "internalType": "uint256",
          "name": "dna",
          "type": "uint256"
        }
      ],
      "name": "NewZombie",
      "type": "event"
    },
    {
      "anonymous": false,
      "inputs": [
        {
          "indexed": true,
          "internalType": "address",
          "name": "previousOwner",
          "type": "address"
        },
        {
          "indexed": true,
          "internalType": "address",
          "name": "newOwner",
          "type": "address"
        }
      ],
      "name": "OwnershipTransferred",
      "type": "event"
    },
    {
      "inputs": [
        {
          "internalType": "uint256",
          "name": "_zombieId",
          "type": "uint256"
        },
        {
          "internalType": "uint256",
          "name": "_newDna",
          "type": "uint256"
        }
      ],
      "name": "changeDna",
      "outputs": [],
      "stateMutability": "nonpayable",
      "type": "function"
    },
    {
      "inputs": [
        {
          "internalType": "uint256",
          "name": "_zombieId",
          "type": "uint256"
        },
        {
          "internalType": "string",
          "name": "_newName",
          "type": "string"
        }
      ],
      "name": "changeName",
      "outputs": [],
      "stateMutability": "nonpayable",
      "type": "function"
    },
    {
      "inputs": [
        {
          "internalType": "string",
          "name": "_name",
          "type": "string"
        }
      ],
      "name": "createRandomZombie",
      "outputs": [],
      "stateMutability": "nonpayable",
      "type": "function"
    },
    {
      "inputs": [
        {
          "internalType": "uint256",
          "name": "_zombieId",
          "type": "uint256"
        },
        {
          "internalType": "uint256",
          "name": "_kittyId",
          "type": "uint256"
        }
      ],
      "name": "feedOnKitty",
      "outputs": [],
      "stateMutability": "nonpayable",
      "type": "function"
    },
    {
      "inputs": [],
      "name": "getAllZombies",
      "outputs": [
        {
          "internalType": "uint256[]",
          "name": "",
          "type": "uint256[]"
        }
      ],
      "stateMutability": "view",
      "type": "function"
    },
    {
      "inputs": [
        {
          "internalType": "address",
          "name": "_owner",
          "type": "address"
        }
      ],
      "name": "getZombiesByOwner",
      "outputs": [
        {
          "internalType": "uint256[]",
          "name": "",
          "type": "uint256[]"
        }
      ],
      "stateMutability": "view",
      "type": "function"
    },
    {
      "inputs": [],
      "name": "isOwner",
      "outputs": [
        {
          "internalType": "bool",
          "name": "",
          "type": "bool"
        }
      ],
      "stateMutability": "view",
      "type": "function"
    },
    {
      "inputs": [
        {
          "internalType": "uint256",
          "name": "_zombieId",
          "type": "uint256"
        }
      ],
      "name": "levelUp",
      "outputs": [],
      "stateMutability": "payable",
      "type": "function"
    },
    {
      "inputs": [],
      "name": "owner",
      "outputs": [
        {
          "internalType": "address",
          "name": "",
          "type": "address"
        }
      ],
      "stateMutability": "view",
      "type": "function"
    },
    {
      "inputs": [],
      "name": "renounceOwnership",
      "outputs": [],
      "stateMutability": "nonpayable",
      "type": "function"
    },
    {
      "inputs": [
        {
          "internalType": "address",
          "name": "_address",
          "type": "address"
        }
      ],
      "name": "setKittyContractAddress",
      "outputs": [],
      "stateMutability": "nonpayable",
      "type": "function"
    },
    {
      "inputs": [
        {
          "internalType": "uint256",
          "name": "_fee",
          "type": "uint256"
        }
      ],
      "name": "setLevelUpFee",
      "outputs": [],
      "stateMutability": "nonpayable",
      "type": "function"
    },
    {
      "inputs": [
        {
          "internalType": "address",
          "name": "newOwner",
          "type": "address"
        }
      ],
      "name": "transferOwnership",
      "outputs": [],
      "stateMutability": "nonpayable",
      "type": "function"
    },
    {
      "inputs": [],
      "name": "withdraw",
      "outputs": [],
      "stateMutability": "nonpayable",
      "type": "function"
    },
    {
      "inputs": [
        {
          "internalType": "uint256",
          "name": "",
          "type": "uint256"
        }
      ],
      "name": "zombieToOwner",
      "outputs": [
        {
          "internalType": "address",
          "name": "",
          "type": "address"
        }
      ],
      "stateMutability": "view",
      "type": "function"
    },
    {
      "inputs": [
        {
          "internalType": "uint256",
          "name": "",
          "type": "uint256"
        }
      ],
      "name": "zombies",
      "outputs": [
        {
          "internalType": "string",
          "name": "name",
          "type": "string"
        },
        {
          "internalType": "uint256",
          "name": "dna",
          "type": "uint256"
        },
        {
          "internalType": "uint32",
          "name": "level",
          "type": "uint32"
        },
        {
          "internalType": "uint32",
          "name": "readyTime",
          "type": "uint32"
        },
        {
          "internalType": "uint16",
          "name": "winCount",
          "type": "uint16"
        },
        {
          "internalType": "uint16",
          "name": "lossCount",
          "type": "uint16"
        }
      ],
      "stateMutability": "view",
      "type": "function"
    },
    {
      "inputs": [
        {
          "internalType": "uint256",
          "name": "_zombieId",
          "type": "uint256"
        },
        {
          "internalType": "uint256",
          "name": "_targetId",
          "type": "uint256"
        }
      ],
      "name": "attack",
      "outputs": [],
      "stateMutability": "nonpayable",
      "type": "function"
    }
  ],
  "bytecode": "0x60806040526010600155600154600a6200001a919062000295565b6002556201518060035566038d7ea4c6800060085560006009556046600a553480156200004657600080fd5b50336000806101000a81548173ffffffffffffffffffffffffffffffffffffffff021916908373ffffffffffffffffffffffffffffffffffffffff16021790555060008054906101000a900473ffffffffffffffffffffffffffffffffffffffff1673ffffffffffffffffffffffffffffffffffffffff16600073ffffffffffffffffffffffffffffffffffffffff167f8be0079c531659141344cd1fd0a4f28419497f9722a3daafe3b4186f6b6457e060405160405180910390a3620002e6565b7f4e487b7100000000000000000000000000000000000000000000000000000000600052601160045260246000fd5b60008160011c9050919050565b6000808291508390505b600185111562000196578086048111156200016e576200016d62000108565b5b60018516156200017e5780820291505b80810290506200018e8562000137565b94506200014e565b94509492505050565b600082620001b1576001905062000284565b81620001c1576000905062000284565b8160018114620001da5760028114620001e5576200021b565b600191505062000284565b60ff841115620001fa57620001f962000108565b5b8360020a91508482111562000214576200021362000108565b5b5062000284565b5060208310610133831016604e8410600b8410161715620002555782820a9050838111156200024f576200024e62000108565b5b62000284565b62000264848484600162000144565b925090508184048111156200027e576200027d62000108565b5b81810290505b9392505050565b6000819050919050565b6000620002a2826200028b565b9150620002af836200028b565b9250620002de7fffffffffffffffffffffffffffffffffffffffffffffffffffffffffffffffff84846200019f565b905092915050565b6128a180620002f66000396000f3fe6080604052600436106100fe5760003560e01c8063715018a611610095578063ab170a6d11610064578063ab170a6d14610303578063c39cbef11461032e578063ccf670f814610357578063e1fa763814610380578063f2fde38b146103a9576100fe565b8063715018a61461026d5780637bff0a01146102845780638da5cb5b146102ad5780638f32d59b146102d8576100fe565b80634412e104116100d15780634412e104146101a1578063528b7b8f146101de5780635f4623f11461021b5780635faf288014610244576100fe565b80630ce90ec21461010357806317a7f4cc1461011f5780632052465e146101485780633ccfd60b1461018a575b600080fd5b61011d60048036038101906101189190611943565b6103d2565b005b34801561012b57600080fd5b5061014660048036038101906101419190611970565b610475565b005b34801561015457600080fd5b5061016f600480360381019061016a9190611943565b610593565b60405161018196959493929190611a8b565b60405180910390f35b34801561019657600080fd5b5061019f6106a3565b005b3480156101ad57600080fd5b506101c860048036038101906101c39190611b51565b61070a565b6040516101d59190611c3c565b60405180910390f35b3480156101ea57600080fd5b5061020560048036038101906102009190611943565b61085c565b6040516102129190611c6d565b60405180910390f35b34801561022757600080fd5b50610242600480360381019061023d9190611b51565b61088f565b005b34801561025057600080fd5b5061026b60048036038101906102669190611970565b6108e4565b005b34801561027957600080fd5b506102826109cc565b005b34801561029057600080fd5b506102ab60048036038101906102a69190611dbd565b610a9b565b005b3480156102b957600080fd5b506102c2610b02565b6040516102cf9190611c6d565b60405180910390f35b3480156102e457600080fd5b506102ed610b2b565b6040516102fa9190611e21565b60405180910390f35b34801561030f57600080fd5b50610318610b82565b6040516103259190611c3c565b60405180910390f35b34801561033a57600080fd5b5061035560048036038101906103509190611e9c565b610c31565b005b34801561036357600080fd5b5061037e60048036038101906103799190611943565b610d25565b005b34801561038c57600080fd5b506103a760048036038101906103a29190611970565b610d40565b005b3480156103b557600080fd5b506103d060048036038101906103cb9190611b51565b610fda565b005b60085434146103e057600080fd5b61042f6001600483815481106103f9576103f8611efc565b5b906000526020600020906003020160020160009054906101000a900463ffffffff1663ffffffff16610ff790919063ffffffff16565b6004828154811061044357610442611efc565b5b906000526020600020906003020160020160006101000a81548163ffffffff021916908363ffffffff16021790555050565b6000600760009054906101000a900473ffffffffffffffffffffffffffffffffffffffff1673ffffffffffffffffffffffffffffffffffffffff1663e98b7f4d836040518263ffffffff1660e01b81526004016104d29190611f2b565b61014060405180830381865afa1580156104f0573d6000803e3d6000fd5b505050506040513d601f19601f820116820180604052508101906105149190611f87565b9091929394959697985090919293949596975090919293949596509091929394955090919293945090919293509091925090915090508091505061058e83826040518060400160405280600581526020017f6b6974747900000000000000000000000000000000000000000000000000000081525061102f565b505050565b600481815481106105a357600080fd5b90600052602060002090600302016000915090508060000180546105c690612095565b80601f01602080910402602001604051908101604052809291908181526020018280546105f290612095565b801561063f5780601f106106145761010080835404028352916020019161063f565b820191906000526020600020905b81548152906001019060200180831161062257829003601f168201915b5050505050908060010154908060020160009054906101000a900463ffffffff16908060020160049054906101000a900463ffffffff16908060020160089054906101000a900461ffff169080600201600a9054906101000a900461ffff16905086565b6106ab610b2b565b6106b457600080fd5b60006106be610b02565b90508073ffffffffffffffffffffffffffffffffffffffff166108fc479081150290604051600060405180830381858888f19350505050158015610706573d6000803e3d6000fd5b5050565b60606000600660008473ffffffffffffffffffffffffffffffffffffffff1673ffffffffffffffffffffffffffffffffffffffff1681526020019081526020016000205467ffffffffffffffff81111561076757610766611c92565b5b6040519080825280602002602001820160405280156107955781602001602082028036833780820191505090505b5090506000805b600480549050811015610851578473ffffffffffffffffffffffffffffffffffffffff166005600083815260200190815260200160002060009054906101000a900473ffffffffffffffffffffffffffffffffffffffff1673ffffffffffffffffffffffffffffffffffffffff160361083e578083838151811061082357610822611efc565b5b602002602001018181525050818061083a906120f5565b9250505b8080610849906120f5565b91505061079c565b508192505050919050565b60056020528060005260406000206000915054906101000a900473ffffffffffffffffffffffffffffffffffffffff1681565b610897610b2b565b6108a057600080fd5b80600760006101000a81548173ffffffffffffffffffffffffffffffffffffffff021916908373ffffffffffffffffffffffffffffffffffffffff16021790555050565b60148281600482815481106108fc576108fb611efc565b5b906000526020600020906003020160020160009054906101000a900463ffffffff1663ffffffff16101561092f57600080fd5b836005600082815260200190815260200160002060009054906101000a900473ffffffffffffffffffffffffffffffffffffffff1673ffffffffffffffffffffffffffffffffffffffff163373ffffffffffffffffffffffffffffffffffffffff161461099b57600080fd5b83600486815481106109b0576109af611efc565b5b9060005260206000209060030201600101819055505050505050565b6109d4610b2b565b6109dd57600080fd5b600073ffffffffffffffffffffffffffffffffffffffff1660008054906101000a900473ffffffffffffffffffffffffffffffffffffffff1673ffffffffffffffffffffffffffffffffffffffff167f8be0079c531659141344cd1fd0a4f28419497f9722a3daafe3b4186f6b6457e060405160405180910390a360008060006101000a81548173ffffffffffffffffffffffffffffffffffffffff021916908373ffffffffffffffffffffffffffffffffffffffff160217905550565b6000600660003373ffffffffffffffffffffffffffffffffffffffff1673ffffffffffffffffffffffffffffffffffffffff1681526020019081526020016000205414610ae757600080fd5b6000610af282611213565b9050610afe8282611258565b5050565b60008060009054906101000a900473ffffffffffffffffffffffffffffffffffffffff16905090565b60008060009054906101000a900473ffffffffffffffffffffffffffffffffffffffff1673ffffffffffffffffffffffffffffffffffffffff163373ffffffffffffffffffffffffffffffffffffffff1614905090565b6060600060048054905067ffffffffffffffff811115610ba557610ba4611c92565b5b604051908082528060200260200182016040528015610bd35781602001602082028036833780820191505090505b5090506000805b600480549050811015610c285780838381518110610bfb57610bfa611efc565b5b6020026020010181815250508180610c12906120f5565b9250508080610c20906120f5565b915050610bda565b50819250505090565b6002838160048281548110610c4957610c48611efc565b5b906000526020600020906003020160020160009054906101000a900463ffffffff1663ffffffff161015610c7c57600080fd5b846005600082815260200190815260200160002060009054906101000a900473ffffffffffffffffffffffffffffffffffffffff1673ffffffffffffffffffffffffffffffffffffffff163373ffffffffffffffffffffffffffffffffffffffff1614610ce857600080fd5b848460048881548110610cfe57610cfd611efc565b5b90600052602060002090600302016000019182610d1c9291906122f4565b50505050505050565b610d2d610b2b565b610d3657600080fd5b8060088190555050565b816005600082815260200190815260200160002060009054906101000a900473ffffffffffffffffffffffffffffffffffffffff1673ffffffffffffffffffffffffffffffffffffffff163373ffffffffffffffffffffffffffffffffffffffff1614610dac57600080fd5b600060048481548110610dc257610dc1611efc565b5b90600052602060002090600302019050600060048481548110610de857610de7611efc565b5b906000526020600020906003020190506000610e0460646114c8565b9050600a548111610f3857610e3960018460020160089054906101000a900461ffff1661ffff1661152890919063ffffffff16565b8360020160086101000a81548161ffff021916908361ffff160217905550610e8560018460020160009054906101000a900463ffffffff1663ffffffff16610ff790919063ffffffff16565b8360020160006101000a81548163ffffffff021916908363ffffffff160217905550610ed1600183600201600a9054906101000a900461ffff1661ffff1661152890919063ffffffff16565b82600201600a6101000a81548161ffff021916908361ffff160217905550610f338683600101546040518060400160405280600681526020017f7a6f6d626965000000000000000000000000000000000000000000000000000081525061102f565b610fd2565b610f62600184600201600a9054906101000a900461ffff1661ffff1661152890919063ffffffff16565b83600201600a6101000a81548161ffff021916908361ffff160217905550610faa60018360020160089054906101000a900461ffff1661ffff1661152890919063ffffffff16565b8260020160086101000a81548161ffff021916908361ffff160217905550610fd18361155c565b5b505050505050565b610fe2610b2b565b610feb57600080fd5b610ff48161158f565b50565b600080828461100691906123c4565b90508363ffffffff168163ffffffff161015611025576110246123fc565b5b8091505092915050565b826005600082815260200190815260200160002060009054906101000a900473ffffffffffffffffffffffffffffffffffffffff1673ffffffffffffffffffffffffffffffffffffffff163373ffffffffffffffffffffffffffffffffffffffff161461109b57600080fd5b6000600485815481106110b1576110b0611efc565b5b906000526020600020906003020190506110ca81611685565b6110d357600080fd5b600254846110e1919061245a565b9350600060028583600101546110f7919061248b565b61110191906124bf565b905060405160200161111290612547565b6040516020818303038152906040528051906020012084604051602001611139919061258d565b604051602081830303815290604052805190602001200361117b576063606482611163919061245a565b8261116e91906125a4565b611178919061248b565b90505b60006001600660003373ffffffffffffffffffffffffffffffffffffffff1673ffffffffffffffffffffffffffffffffffffffff168152602001908152602001600020546111c9919061248b565b9050611201836000016111db836116ac565b6040516020016111ec92919061265b565b60405160208183030381529060405283611258565b61120a8361155c565b50505050505050565b60008082604051602001611227919061258d565b6040516020818303038152906040528051906020012060001c905060025481611250919061245a565b915050919050565b60046040518060c00160405280848152602001838152602001600163ffffffff1681526020016003544261128c919061248b565b63ffffffff168152602001600061ffff168152602001600061ffff16815250908060018154018082558091505060019003906000526020600020906003020160009091909190915060008201518160000190816112e9919061267f565b506020820151816001015560408201518160020160006101000a81548163ffffffff021916908363ffffffff16021790555060608201518160020160046101000a81548163ffffffff021916908363ffffffff16021790555060808201518160020160086101000a81548161ffff021916908361ffff16021790555060a082015181600201600a6101000a81548161ffff021916908361ffff16021790555050506000600160048054905061139e91906125a4565b9050336005600083815260200190815260200160002060006101000a81548173ffffffffffffffffffffffffffffffffffffffff021916908373ffffffffffffffffffffffffffffffffffffffff1602179055506114456001600660003373ffffffffffffffffffffffffffffffffffffffff1673ffffffffffffffffffffffffffffffffffffffff1681526020019081526020016000205461177a90919063ffffffff16565b600660003373ffffffffffffffffffffffffffffffffffffffff1673ffffffffffffffffffffffffffffffffffffffff168152602001908152602001600020819055507f88f026aacbbecc90c18411df4b1185fd8d9be2470f1962f192bf84a27d0704b78184846040516114bb93929190612751565b60405180910390a1505050565b60006114e0600160095461177a90919063ffffffff16565b6009819055508142336009546040516020016114fe939291906127f8565b6040516020818303038152906040528051906020012060001c611521919061245a565b9050919050565b60008082846115379190612835565b90508361ffff168161ffff161015611552576115516123fc565b5b8091505092915050565b6003544261156a919061248b565b8160020160046101000a81548163ffffffff021916908363ffffffff16021790555050565b600073ffffffffffffffffffffffffffffffffffffffff168173ffffffffffffffffffffffffffffffffffffffff16036115c857600080fd5b8073ffffffffffffffffffffffffffffffffffffffff1660008054906101000a900473ffffffffffffffffffffffffffffffffffffffff1673ffffffffffffffffffffffffffffffffffffffff167f8be0079c531659141344cd1fd0a4f28419497f9722a3daafe3b4186f6b6457e060405160405180910390a3806000806101000a81548173ffffffffffffffffffffffffffffffffffffffff021916908373ffffffffffffffffffffffffffffffffffffffff16021790555050565b6000428260020160049054906101000a900463ffffffff1663ffffffff1611159050919050565b6060600060016116bb846117a6565b01905060008167ffffffffffffffff8111156116da576116d9611c92565b5b6040519080825280601f01601f19166020018201604052801561170c5781602001600182028036833780820191505090505b509050600082602001820190505b60011561176f578080600190039150507f3031323334353637383961626364656600000000000000000000000000000000600a86061a8153600a85816117635761176261242b565b5b0494506000850361171a575b819350505050919050565b6000808284611789919061248b565b90508381101561179c5761179b6123fc565b5b8091505092915050565b600080600090507a184f03e93ff9f4daa797ed6e38ed64bf6a1f0100000000000000008310611804577a184f03e93ff9f4daa797ed6e38ed64bf6a1f01000000000000000083816117fa576117f961242b565b5b0492506040810190505b6d04ee2d6d415b85acef81000000008310611841576d04ee2d6d415b85acef810000000083816118375761183661242b565b5b0492506020810190505b662386f26fc10000831061187057662386f26fc1000083816118665761186561242b565b5b0492506010810190505b6305f5e1008310611899576305f5e100838161188f5761188e61242b565b5b0492506008810190505b61271083106118be5761271083816118b4576118b361242b565b5b0492506004810190505b606483106118e157606483816118d7576118d661242b565b5b0492506002810190505b600a83106118f0576001810190505b80915050919050565b6000604051905090565b600080fd5b600080fd5b6000819050919050565b6119208161190d565b811461192b57600080fd5b50565b60008135905061193d81611917565b92915050565b60006020828403121561195957611958611903565b5b60006119678482850161192e565b91505092915050565b6000806040838503121561198757611986611903565b5b60006119958582860161192e565b92505060206119a68582860161192e565b9150509250929050565b600081519050919050565b600082825260208201905092915050565b60005b838110156119ea5780820151818401526020810190506119cf565b60008484015250505050565b6000601f19601f8301169050919050565b6000611a12826119b0565b611a1c81856119bb565b9350611a2c8185602086016119cc565b611a35816119f6565b840191505092915050565b611a498161190d565b82525050565b600063ffffffff82169050919050565b611a6881611a4f565b82525050565b600061ffff82169050919050565b611a8581611a6e565b82525050565b600060c0820190508181036000830152611aa58189611a07565b9050611ab46020830188611a40565b611ac16040830187611a5f565b611ace6060830186611a5f565b611adb6080830185611a7c565b611ae860a0830184611a7c565b979650505050505050565b600073ffffffffffffffffffffffffffffffffffffffff82169050919050565b6000611b1e82611af3565b9050919050565b611b2e81611b13565b8114611b3957600080fd5b50565b600081359050611b4b81611b25565b92915050565b600060208284031215611b6757611b66611903565b5b6000611b7584828501611b3c565b91505092915050565b600081519050919050565b600082825260208201905092915050565b6000819050602082019050919050565b611bb38161190d565b82525050565b6000611bc58383611baa565b60208301905092915050565b6000602082019050919050565b6000611be982611b7e565b611bf38185611b89565b9350611bfe83611b9a565b8060005b83811015611c2f578151611c168882611bb9565b9750611c2183611bd1565b925050600181019050611c02565b5085935050505092915050565b60006020820190508181036000830152611c568184611bde565b905092915050565b611c6781611b13565b82525050565b6000602082019050611c826000830184611c5e565b92915050565b600080fd5b600080fd5b7f4e487b7100000000000000000000000000000000000000000000000000000000600052604160045260246000fd5b611cca826119f6565b810181811067ffffffffffffffff82111715611ce957611ce8611c92565b5b80604052505050565b6000611cfc6118f9565b9050611d088282611cc1565b919050565b600067ffffffffffffffff821115611d2857611d27611c92565b5b611d31826119f6565b9050602081019050919050565b82818337600083830152505050565b6000611d60611d5b84611d0d565b611cf2565b905082815260208101848484011115611d7c57611d7b611c8d565b5b611d87848285611d3e565b509392505050565b600082601f830112611da457611da3611c88565b5b8135611db4848260208601611d4d565b91505092915050565b600060208284031215611dd357611dd2611903565b5b600082013567ffffffffffffffff811115611df157611df0611908565b5b611dfd84828501611d8f565b91505092915050565b60008115159050919050565b611e1b81611e06565b82525050565b6000602082019050611e366000830184611e12565b92915050565b600080fd5b600080fd5b60008083601f840112611e5c57611e5b611c88565b5b8235905067ffffffffffffffff811115611e7957611e78611e3c565b5b602083019150836001820283011115611e9557611e94611e41565b5b9250929050565b600080600060408486031215611eb557611eb4611903565b5b6000611ec38682870161192e565b935050602084013567ffffffffffffffff811115611ee457611ee3611908565b5b611ef086828701611e46565b92509250509250925092565b7f4e487b7100000000000000000000000000000000000000000000000000000000600052603260045260246000fd5b6000602082019050611f406000830184611a40565b92915050565b611f4f81611e06565b8114611f5a57600080fd5b50565b600081519050611f6c81611f46565b92915050565b600081519050611f8181611917565b92915050565b6000806000806000806000806000806101408b8d031215611fab57611faa611903565b5b6000611fb98d828e01611f5d565b9a50506020611fca8d828e01611f5d565b9950506040611fdb8d828e01611f72565b9850506060611fec8d828e01611f72565b9750506080611ffd8d828e01611f72565b96505060a061200e8d828e01611f72565b95505060c061201f8d828e01611f72565b94505060e06120308d828e01611f72565b9350506101006120428d828e01611f72565b9250506101206120548d828e01611f72565b9150509295989b9194979a5092959850565b7f4e487b7100000000000000000000000000000000000000000000000000000000600052602260045260246000fd5b600060028204905060018216806120ad57607f821691505b6020821081036120c0576120bf612066565b5b50919050565b7f4e487b7100000000000000000000000000000000000000000000000000000000600052601160045260246000fd5b60006121008261190d565b91507fffffffffffffffffffffffffffffffffffffffffffffffffffffffffffffffff8203612132576121316120c6565b5b600182019050919050565b600082905092915050565b60008190508160005260206000209050919050565b60006020601f8301049050919050565b600082821b905092915050565b6000600883026121aa7fffffffffffffffffffffffffffffffffffffffffffffffffffffffffffffffff8261216d565b6121b4868361216d565b95508019841693508086168417925050509392505050565b6000819050919050565b60006121f16121ec6121e78461190d565b6121cc565b61190d565b9050919050565b6000819050919050565b61220b836121d6565b61221f612217826121f8565b84845461217a565b825550505050565b600090565b612234612227565b61223f818484612202565b505050565b5b818110156122635761225860008261222c565b600181019050612245565b5050565b601f8211156122a85761227981612148565b6122828461215d565b81016020851015612291578190505b6122a561229d8561215d565b830182612244565b50505b505050565b600082821c905092915050565b60006122cb600019846008026122ad565b1980831691505092915050565b60006122e483836122ba565b9150826002028217905092915050565b6122fe838361213d565b67ffffffffffffffff81111561231757612316611c92565b5b6123218254612095565b61232c828285612267565b6000601f83116001811461235b5760008415612349578287013590505b61235385826122d8565b8655506123bb565b601f19841661236986612148565b60005b828110156123915784890135825560018201915060208501945060208101905061236c565b868310156123ae57848901356123aa601f8916826122ba565b8355505b6001600288020188555050505b50505050505050565b60006123cf82611a4f565b91506123da83611a4f565b9250828201905063ffffffff8111156123f6576123f56120c6565b5b92915050565b7f4e487b7100000000000000000000000000000000000000000000000000000000600052600160045260246000fd5b7f4e487b7100000000000000000000000000000000000000000000000000000000600052601260045260246000fd5b60006124658261190d565b91506124708361190d565b9250826124805761247f61242b565b5b828206905092915050565b60006124968261190d565b91506124a18361190d565b92508282019050808211156124b9576124b86120c6565b5b92915050565b60006124ca8261190d565b91506124d58361190d565b9250826124e5576124e461242b565b5b828204905092915050565b600081905092915050565b7f6b69747479000000000000000000000000000000000000000000000000000000600082015250565b60006125316005836124f0565b915061253c826124fb565b600582019050919050565b600061255282612524565b9150819050919050565b6000612567826119b0565b61257181856124f0565b93506125818185602086016119cc565b80840191505092915050565b6000612599828461255c565b915081905092915050565b60006125af8261190d565b91506125ba8361190d565b92508282039050818111156125d2576125d16120c6565b5b92915050565b600081546125e581612095565b6125ef81866124f0565b9450600182166000811461260a576001811461261f57612652565b60ff1983168652811515820286019350612652565b61262885612148565b60005b8381101561264a5781548189015260018201915060208101905061262b565b838801955050505b50505092915050565b600061266782856125d8565b9150612673828461255c565b91508190509392505050565b612688826119b0565b67ffffffffffffffff8111156126a1576126a0611c92565b5b6126ab8254612095565b6126b6828285612267565b600060209050601f8311600181146126e957600084156126d7578287015190505b6126e185826122d8565b865550612749565b601f1984166126f786612148565b60005b8281101561271f578489015182556001820191506020850194506020810190506126fa565b8683101561273c5784890151612738601f8916826122ba565b8355505b6001600288020188555050505b505050505050565b60006060820190506127666000830186611a40565b81810360208301526127788185611a07565b90506127876040830184611a40565b949350505050565b6000819050919050565b6127aa6127a58261190d565b61278f565b82525050565b60008160601b9050919050565b60006127c8826127b0565b9050919050565b60006127da826127bd565b9050919050565b6127f26127ed82611b13565b6127cf565b82525050565b60006128048286612799565b60208201915061281482856127e1565b6014820191506128248284612799565b602082019150819050949350505050565b600061284082611a6e565b915061284b83611a6e565b9250828201905061ffff811115612865576128646120c6565b5b9291505056fea2646970667358221220c75bd8cc16e06b96fc2058e21c4c770d213b0ae65b48afbab1bdd5529357425164736f6c63430008110033",
  "immutableReferences": {},
  "source": "// SPDX-License-Identifier: MIT\npragma solidity >=0.5.0 <0.9.0;\n\nimport \"./zombiehelper.sol\";\n\ncontract ZombieAttack is ZombieHelper {\n\n  using SafeMath for uint256;\n  using SafeMath32 for uint32;\n  using SafeMath16 for uint16;\n\n  // nonce 1\n  uint randNonce = 0;\n  // zombie\n  uint attackVictoryProbability = 70;\n\n  function randMod(uint _modulus) internal returns(uint) {\n    randNonce = randNonce.add(1);\n    // _modulus \n    return uint(keccak256(abi.encodePacked(block.timestamp, msg.sender, randNonce))) % _modulus;\n  }\n\n  function attack(uint _zombieId, uint _targetId) external onlyOwnerOf(_zombieId) {\n    Zombie storage myZombie = zombies[_zombieId];\n    Zombie storage enemyZombie = zombies[_targetId];\n    uint rand = randMod(100);   // 2(10^2)\n\n    // 70%\n    if (rand <= attackVictoryProbability) {\n      // win\n      myZombie.winCount = myZombie.winCount.add(1);\n      myZombie.level = myZombie.level.add(1);\n      enemyZombie.lossCount = enemyZombie.lossCount.add(1);\n      _feedAndMultiply(_zombieId, enemyZombie.dna, \"zombie\");\n    } else {\n      // loss\n      myZombie.lossCount = myZombie.lossCount.add(1);\n      enemyZombie.winCount = enemyZombie.winCount.add(1);\n      _triggerCooldown(myZombie);\n    }\n  }\n}\n",
  "sourcePath": "/Users/takumi/Desktop/works/Repositories/kumahiyo/blockchain/crypto-zombies/backend/contracts/zombieattack.sol",
  "compiler": {
    "name": "solc",
    "version": "0.8.17+commit.8df45f5f.Emscripten.clang"
  },
  "schemaVersion": "3.4.10",
  "updatedAt": "2022-12-20T12:05:30.679Z",
  "devdoc": {
    "kind": "dev",
    "methods": {
      "isOwner()": {
        "returns": {
          "_0": "true if `msg.sender` is the owner of the contract."
        }
      },
      "owner()": {
        "returns": {
          "_0": "the address of the owner."
        }
      },
      "renounceOwnership()": {
        "details": "Allows the current owner to relinquish control of the contract."
      },
      "transferOwnership(address)": {
        "details": "Allows the current owner to transfer control of the contract to a newOwner.",
        "params": {
          "newOwner": "The address to transfer ownership to."
        }
      }
    },
    "version": 1
  },
  "userdoc": {
    "kind": "user",
    "methods": {
      "renounceOwnership()": {
        "notice": "Renouncing to ownership will leave the contract without an owner. It will not be possible to call the functions with the `onlyOwner` modifier anymore."
      }
    },
    "version": 1
  }
}